{
  "_format": "hh-sol-artifact-1",
  "contractName": "Alunaverse",
  "sourceName": "contracts/Alunaverse.sol",
  "abi": [
    {
      "inputs": [],
      "stateMutability": "nonpayable",
      "type": "constructor"
    },
    {
      "anonymous": false,
      "inputs": [
        {
          "indexed": true,
          "internalType": "address",
          "name": "account",
          "type": "address"
        },
        {
          "indexed": true,
          "internalType": "address",
          "name": "operator",
          "type": "address"
        },
        {
          "indexed": false,
          "internalType": "bool",
          "name": "approved",
          "type": "bool"
        }
      ],
      "name": "ApprovalForAll",
      "type": "event"
    },
    {
      "anonymous": false,
      "inputs": [
        {
          "indexed": true,
          "internalType": "address",
          "name": "previousOwner",
          "type": "address"
        },
        {
          "indexed": true,
          "internalType": "address",
          "name": "newOwner",
          "type": "address"
        }
      ],
      "name": "OwnershipTransferred",
      "type": "event"
    },
    {
      "anonymous": false,
      "inputs": [
        {
          "indexed": true,
          "internalType": "address",
          "name": "operator",
          "type": "address"
        },
        {
          "indexed": true,
          "internalType": "address",
          "name": "from",
          "type": "address"
        },
        {
          "indexed": true,
          "internalType": "address",
          "name": "to",
          "type": "address"
        },
        {
          "indexed": false,
          "internalType": "uint256[]",
          "name": "ids",
          "type": "uint256[]"
        },
        {
          "indexed": false,
          "internalType": "uint256[]",
          "name": "values",
          "type": "uint256[]"
        }
      ],
      "name": "TransferBatch",
      "type": "event"
    },
    {
      "anonymous": false,
      "inputs": [
        {
          "indexed": true,
          "internalType": "address",
          "name": "operator",
          "type": "address"
        },
        {
          "indexed": true,
          "internalType": "address",
          "name": "from",
          "type": "address"
        },
        {
          "indexed": true,
          "internalType": "address",
          "name": "to",
          "type": "address"
        },
        {
          "indexed": false,
          "internalType": "uint256",
          "name": "id",
          "type": "uint256"
        },
        {
          "indexed": false,
          "internalType": "uint256",
          "name": "value",
          "type": "uint256"
        }
      ],
      "name": "TransferSingle",
      "type": "event"
    },
    {
      "anonymous": false,
      "inputs": [
        {
          "indexed": false,
          "internalType": "string",
          "name": "value",
          "type": "string"
        },
        {
          "indexed": true,
          "internalType": "uint256",
          "name": "id",
          "type": "uint256"
        }
      ],
      "name": "URI",
      "type": "event"
    },
    {
      "inputs": [
        {
          "internalType": "address",
          "name": "minter",
          "type": "address"
        }
      ],
      "name": "approveMinter",
      "outputs": [],
      "stateMutability": "nonpayable",
      "type": "function"
    },
    {
      "inputs": [
        {
          "internalType": "address",
          "name": "",
          "type": "address"
        }
      ],
      "name": "approvedMinters",
      "outputs": [
        {
          "internalType": "bool",
          "name": "",
          "type": "bool"
        }
      ],
      "stateMutability": "view",
      "type": "function"
    },
    {
      "inputs": [
        {
          "internalType": "address",
          "name": "account",
          "type": "address"
        },
        {
          "internalType": "uint256",
          "name": "id",
          "type": "uint256"
        }
      ],
      "name": "balanceOf",
      "outputs": [
        {
          "internalType": "uint256",
          "name": "",
          "type": "uint256"
        }
      ],
      "stateMutability": "view",
      "type": "function"
    },
    {
      "inputs": [
        {
          "internalType": "address[]",
          "name": "accounts",
          "type": "address[]"
        },
        {
          "internalType": "uint256[]",
          "name": "ids",
          "type": "uint256[]"
        }
      ],
      "name": "balanceOfBatch",
      "outputs": [
        {
          "internalType": "uint256[]",
          "name": "",
          "type": "uint256[]"
        }
      ],
      "stateMutability": "view",
      "type": "function"
    },
    {
      "inputs": [
        {
          "internalType": "uint256",
          "name": "tokenId",
          "type": "uint256"
        },
        {
          "internalType": "uint256",
          "name": "supplyLimit",
          "type": "uint256"
        },
        {
          "internalType": "string",
          "name": "newTokenUri",
          "type": "string"
        }
      ],
      "name": "initialiseToken",
      "outputs": [],
      "stateMutability": "nonpayable",
      "type": "function"
    },
    {
      "inputs": [
        {
          "internalType": "address",
          "name": "account",
          "type": "address"
        },
        {
          "internalType": "address",
          "name": "operator",
          "type": "address"
        }
      ],
      "name": "isApprovedForAll",
      "outputs": [
        {
          "internalType": "bool",
          "name": "",
          "type": "bool"
        }
      ],
      "stateMutability": "view",
      "type": "function"
    },
    {
      "inputs": [
        {
          "internalType": "address",
          "name": "to",
          "type": "address"
        },
        {
          "internalType": "uint256",
          "name": "tokenId",
          "type": "uint256"
        },
        {
          "internalType": "uint256",
          "name": "amount",
          "type": "uint256"
        },
        {
          "internalType": "bytes",
          "name": "data",
          "type": "bytes"
        }
      ],
      "name": "mint",
      "outputs": [],
      "stateMutability": "nonpayable",
      "type": "function"
    },
    {
      "inputs": [
        {
          "internalType": "address",
          "name": "to",
          "type": "address"
        },
        {
          "internalType": "uint256[]",
          "name": "tokenIds",
          "type": "uint256[]"
        },
        {
          "internalType": "uint256[]",
          "name": "amounts",
          "type": "uint256[]"
        },
        {
          "internalType": "bytes",
          "name": "data",
          "type": "bytes"
        }
      ],
      "name": "mintBatch",
      "outputs": [],
      "stateMutability": "nonpayable",
      "type": "function"
    },
    {
      "inputs": [
        {
          "internalType": "address[]",
          "name": "recipients",
          "type": "address[]"
        },
        {
          "internalType": "uint256",
          "name": "tokenId",
          "type": "uint256"
        },
        {
          "internalType": "uint256[]",
          "name": "amounts",
          "type": "uint256[]"
        },
        {
          "internalType": "bytes",
          "name": "data",
          "type": "bytes"
        }
      ],
      "name": "mintToMany",
      "outputs": [],
      "stateMutability": "nonpayable",
      "type": "function"
    },
    {
      "inputs": [],
      "name": "owner",
      "outputs": [
        {
          "internalType": "address",
          "name": "",
          "type": "address"
        }
      ],
      "stateMutability": "view",
      "type": "function"
    },
    {
      "inputs": [],
      "name": "renounceOwnership",
      "outputs": [],
      "stateMutability": "nonpayable",
      "type": "function"
    },
    {
      "inputs": [
        {
          "internalType": "address",
          "name": "minter",
          "type": "address"
        }
      ],
      "name": "revokeMinter",
      "outputs": [],
      "stateMutability": "nonpayable",
      "type": "function"
    },
    {
      "inputs": [
        {
          "internalType": "uint256",
          "name": "",
          "type": "uint256"
        },
        {
          "internalType": "uint256",
          "name": "value",
          "type": "uint256"
        }
      ],
      "name": "royaltyInfo",
      "outputs": [
        {
          "internalType": "address",
          "name": "receiver",
          "type": "address"
        },
        {
          "internalType": "uint256",
          "name": "royaltyAmount",
          "type": "uint256"
        }
      ],
      "stateMutability": "view",
      "type": "function"
    },
    {
      "inputs": [
        {
          "internalType": "address",
          "name": "from",
          "type": "address"
        },
        {
          "internalType": "address",
          "name": "to",
          "type": "address"
        },
        {
          "internalType": "uint256[]",
          "name": "ids",
          "type": "uint256[]"
        },
        {
          "internalType": "uint256[]",
          "name": "amounts",
          "type": "uint256[]"
        },
        {
          "internalType": "bytes",
          "name": "data",
          "type": "bytes"
        }
      ],
      "name": "safeBatchTransferFrom",
      "outputs": [],
      "stateMutability": "nonpayable",
      "type": "function"
    },
    {
      "inputs": [
        {
          "internalType": "address",
          "name": "from",
          "type": "address"
        },
        {
          "internalType": "address",
          "name": "to",
          "type": "address"
        },
        {
          "internalType": "uint256",
          "name": "id",
          "type": "uint256"
        },
        {
          "internalType": "uint256",
          "name": "amount",
          "type": "uint256"
        },
        {
          "internalType": "bytes",
          "name": "data",
          "type": "bytes"
        }
      ],
      "name": "safeTransferFrom",
      "outputs": [],
      "stateMutability": "nonpayable",
      "type": "function"
    },
    {
      "inputs": [
        {
          "internalType": "address",
          "name": "operator",
          "type": "address"
        },
        {
          "internalType": "bool",
          "name": "approved",
          "type": "bool"
        }
      ],
      "name": "setApprovalForAll",
      "outputs": [],
      "stateMutability": "nonpayable",
      "type": "function"
    },
    {
      "inputs": [
        {
          "internalType": "address",
          "name": "recipient",
          "type": "address"
        },
        {
          "internalType": "uint256",
          "name": "value",
          "type": "uint256"
        }
      ],
      "name": "setRoyalties",
      "outputs": [],
      "stateMutability": "nonpayable",
      "type": "function"
    },
    {
      "inputs": [
        {
          "internalType": "bytes4",
          "name": "interfaceId",
          "type": "bytes4"
        }
      ],
      "name": "supportsInterface",
      "outputs": [
        {
          "internalType": "bool",
          "name": "",
          "type": "bool"
        }
      ],
      "stateMutability": "view",
      "type": "function"
    },
    {
      "inputs": [
        {
          "internalType": "uint256",
          "name": "tokenId",
          "type": "uint256"
        }
      ],
      "name": "toggleTokenActive",
      "outputs": [],
      "stateMutability": "nonpayable",
      "type": "function"
    },
    {
      "inputs": [
        {
          "internalType": "uint256",
          "name": "",
          "type": "uint256"
        }
      ],
      "name": "tokenActive",
      "outputs": [
        {
          "internalType": "bool",
          "name": "",
          "type": "bool"
        }
      ],
      "stateMutability": "view",
      "type": "function"
    },
    {
      "inputs": [
        {
          "internalType": "uint256",
          "name": "",
          "type": "uint256"
        }
      ],
      "name": "tokenSupplyLimit",
      "outputs": [
        {
          "internalType": "uint256",
          "name": "",
          "type": "uint256"
        }
      ],
      "stateMutability": "view",
      "type": "function"
    },
    {
      "inputs": [
        {
          "internalType": "uint256",
          "name": "",
          "type": "uint256"
        }
      ],
      "name": "tokenTotalSupply",
      "outputs": [
        {
          "internalType": "uint256",
          "name": "",
          "type": "uint256"
        }
      ],
      "stateMutability": "view",
      "type": "function"
    },
    {
      "inputs": [
        {
          "internalType": "uint256",
          "name": "tokenId",
          "type": "uint256"
        }
      ],
      "name": "totalSupply",
      "outputs": [
        {
          "internalType": "uint256",
          "name": "",
          "type": "uint256"
        }
      ],
      "stateMutability": "view",
      "type": "function"
    },
    {
      "inputs": [
        {
          "internalType": "address",
          "name": "newOwner",
          "type": "address"
        }
      ],
      "name": "transferOwnership",
      "outputs": [],
      "stateMutability": "nonpayable",
      "type": "function"
    },
    {
      "inputs": [
        {
          "internalType": "uint256",
          "name": "tokenId",
          "type": "uint256"
        },
        {
          "internalType": "uint256",
          "name": "newSupplyLimit",
          "type": "uint256"
        }
      ],
      "name": "updateTokenSupplyLimit",
      "outputs": [],
      "stateMutability": "nonpayable",
      "type": "function"
    },
    {
      "inputs": [
        {
          "internalType": "uint256",
          "name": "tokenId",
          "type": "uint256"
        },
        {
          "internalType": "string",
          "name": "newTokenUri",
          "type": "string"
        }
      ],
      "name": "updateTokenUri",
      "outputs": [],
      "stateMutability": "nonpayable",
      "type": "function"
    },
    {
      "inputs": [
        {
          "internalType": "uint256",
          "name": "tokenId",
          "type": "uint256"
        }
      ],
      "name": "uri",
      "outputs": [
        {
          "internalType": "string",
          "name": "",
          "type": "string"
        }
      ],
      "stateMutability": "view",
      "type": "function"
    }
  ],
  "bytecode": "0x60806040523480156200001157600080fd5b506040805160208101909152600081526200002c336200004c565b62000037816200009c565b5062000046336101f4620000b5565b62000239565b600080546001600160a01b038381166001600160a01b0319831681178455604051919092169283917f8be0079c531659141344cd1fd0a4f28419497f9722a3daafe3b4186f6b6457e09190a35050565b8051620000b190600390602084019062000156565b5050565b6127108111156200010c5760405162461bcd60e51b815260206004820152601a60248201527f45524332393831526f79616c746965733a20546f6f2068696768000000000000604482015260640160405180910390fd5b604080518082019091526001600160a01b0390921680835262ffffff909116602090920182905260048054600160a01b9093026001600160b81b0319909316909117919091179055565b8280546200016490620001fc565b90600052602060002090601f016020900481019282620001885760008555620001d3565b82601f10620001a357805160ff1916838001178555620001d3565b82800160010185558215620001d3579182015b82811115620001d3578251825591602001919060010190620001b6565b50620001e1929150620001e5565b5090565b5b80821115620001e15760008155600101620001e6565b600181811c908216806200021157607f821691505b602082108114156200023357634e487b7160e01b600052602260045260246000fd5b50919050565b61282980620002496000396000f3fe608060405234801561001057600080fd5b50600436106101a85760003560e01c8063731133e9116100f9578063d31af48411610097578063e97851cf11610071578063e97851cf14610404578063e985e9c514610417578063f242432a14610453578063f2fde38b1461046657600080fd5b8063d31af484146103bb578063d63a6ce6146103ce578063d87ad201146103e157600080fd5b8063a22cb465116100d3578063a22cb46514610352578063a8b5e6ea14610365578063bd85b03914610388578063cfbd4885146103a857600080fd5b8063731133e9146103115780638c7ea24b146103245780638da5cb5b1461033757600080fd5b80632a55205a116101665780634d197a9b116101405780634d197a9b146102b65780634e1273f4146102c95780636468e317146102e9578063715018a61461030957600080fd5b80632a55205a1461025e5780632eb2c2d6146102905780633bd6aba2146102a357600080fd5b8062fdd58e146101ad57806301ffc9a7146101d35780630e89341c146101f657806314758d4e146102165780631f7fdffa1461022b57806328fd70ec1461023e575b600080fd5b6101c06101bb366004611bde565b610479565b6040519081526020015b60405180910390f35b6101e66101e1366004611c1e565b610512565b60405190151581526020016101ca565b610209610204366004611c42565b610523565b6040516101ca9190611ca8565b610229610224366004611c42565b6105c5565b005b610229610239366004611d47565b61060f565b6101c061024c366004611c42565b60076020526000908152604090205481565b61027161026c366004611df1565b61085d565b604080516001600160a01b0390931683526020830191909152016101ca565b61022961029e366004611f66565b6108b2565b6102296102b136600461200f565b610949565b6102296102c436600461206d565b610b86565b6102dc6102d7366004612088565b610bd4565b6040516101ca9190612183565b6101c06102f7366004611c42565b60086020526000908152604090205481565b610229610cfd565b61022961031f366004612196565b610d33565b610229610332366004611bde565b610e5a565b6000546040516001600160a01b0390911681526020016101ca565b6102296103603660046121fd565b610ed7565b6101e661037336600461206d565b60056020526000908152604090205460ff1681565b6101c0610396366004611c42565b60009081526008602052604090205490565b6102296103b636600461206d565b610fae565b6102296103c9366004612239565b610ff9565b6102296103dc366004612289565b611047565b6101e66103ef366004611c42565b60066020526000908152604090205460ff1681565b610229610412366004611df1565b6110a9565b6101e66104253660046122db565b6001600160a01b03918216600090815260026020908152604080832093909416825291909152205460ff1690565b61022961046136600461230e565b6110e5565b61022961047436600461206d565b61116c565b60006001600160a01b0383166104ea5760405162461bcd60e51b815260206004820152602b60248201527f455243313135353a2062616c616e636520717565727920666f7220746865207a60448201526a65726f206164647265737360a81b60648201526084015b60405180910390fd5b5060009081526001602090815260408083206001600160a01b03949094168352929052205490565b600061051d82611207565b92915050565b600081815260096020526040902080546060919061054090612372565b80601f016020809104026020016040519081016040528092919081815260200182805461056c90612372565b80156105b95780601f1061058e576101008083540402835291602001916105b9565b820191906000526020600020905b81548152906001019060200180831161059c57829003601f168201915b50505050509050919050565b6000546001600160a01b031633146105ef5760405162461bcd60e51b81526004016104e1906123ad565b6000908152600660205260409020805460ff19811660ff90911615179055565b3360009081526005602052604090205460ff168061063757506000546001600160a01b031633145b6106535760405162461bcd60e51b81526004016104e1906123e2565b60005b858110156107b157600660008888848181106106745761067461240f565b602090810292909201358352508101919091526040016000205460ff166106ad5760405162461bcd60e51b81526004016104e190612425565b600760008888848181106106c3576106c361240f565b905060200201358152602001908152602001600020548585838181106106eb576106eb61240f565b90506020020135600860008a8a868181106107085761070861240f565b905060200201358152602001908152602001600020546107289190612465565b11156107465760405162461bcd60e51b81526004016104e19061247d565b8484828181106107585761075861240f565b90506020020135600860008989858181106107755761077561240f565b90506020020135815260200190815260200160002060008282546107999190612465565b909155508190506107a9816124a4565b915050610656565b506108548787878080602002602001604051908101604052809392919081815260200183836020028082843760009201919091525050604080516020808b0282810182019093528a82529093508a92508991829185019084908082843760009201919091525050604080516020601f8a01819004810282018101909252888152925088915087908190840183828082843760009201919091525061122c92505050565b50505050505050565b604080518082019091526004546001600160a01b038116808352600160a01b90910462ffffff166020830181905290916000916127109061089e90866124bf565b6108a891906124de565b9150509250929050565b6001600160a01b0385163314806108ce57506108ce8533610425565b6109355760405162461bcd60e51b815260206004820152603260248201527f455243313135353a207472616e736665722063616c6c6572206973206e6f74206044820152711bdddb995c881b9bdc88185c1c1c9bdd995960721b60648201526084016104e1565b6109428585858585611378565b5050505050565b3360009081526005602052604090205460ff168061097157506000546001600160a01b031633145b61098d5760405162461bcd60e51b81526004016104e1906123e2565b600085815260066020526040902054859060ff166109bd5760405162461bcd60e51b81526004016104e190612425565b8684146109fd5760405162461bcd60e51b815260206004820152600e60248201526d0929ca0aaa8be9a92a69a82a886960931b60448201526064016104e1565b86610a385760405162461bcd60e51b815260206004820152600b60248201526a115354151657d25394155560aa1b60448201526064016104e1565b600086815260076020526040812054905b88811015610b7a5781878783818110610a6457610a6461240f565b90506020020135600860008b815260200190815260200160002054610a899190612465565b1115610aa75760405162461bcd60e51b81526004016104e19061247d565b868682818110610ab957610ab961240f565b90506020020135600860008a81526020019081526020016000206000828254610ae29190612465565b90915550610b6890508a8a83818110610afd57610afd61240f565b9050602002016020810190610b12919061206d565b89898985818110610b2557610b2561240f565b9050602002013588888080601f01602080910402602001604051908101604052809392919081815260200183838082843760009201919091525061150f92505050565b80610b72816124a4565b915050610a49565b50505050505050505050565b6000546001600160a01b03163314610bb05760405162461bcd60e51b81526004016104e1906123ad565b6001600160a01b03166000908152600560205260409020805460ff19166001179055565b60608151835114610c395760405162461bcd60e51b815260206004820152602960248201527f455243313135353a206163636f756e747320616e6420696473206c656e677468604482015268040dad2e6dac2e8c6d60bb1b60648201526084016104e1565b600083516001600160401b03811115610c5457610c54611e13565b604051908082528060200260200182016040528015610c7d578160200160208202803683370190505b50905060005b8451811015610cf557610cc8858281518110610ca157610ca161240f565b6020026020010151858381518110610cbb57610cbb61240f565b6020026020010151610479565b828281518110610cda57610cda61240f565b6020908102919091010152610cee816124a4565b9050610c83565b509392505050565b6000546001600160a01b03163314610d275760405162461bcd60e51b81526004016104e1906123ad565b610d3160006115e1565b565b3360009081526005602052604090205460ff1680610d5b57506000546001600160a01b031633145b610d775760405162461bcd60e51b81526004016104e1906123e2565b600084815260066020526040902054849060ff16610da75760405162461bcd60e51b81526004016104e190612425565b600085815260076020908152604080832054600890925290912054610dcd908690612465565b1115610deb5760405162461bcd60e51b81526004016104e19061247d565b60008581526008602052604081208054869290610e09908490612465565b92505081905550610e5286868686868080601f01602080910402602001604051908101604052809392919081815260200183838082843760009201919091525061150f92505050565b505050505050565b6000546001600160a01b03163314610e845760405162461bcd60e51b81526004016104e1906123ad565b6001600160a01b038216610ec95760405162461bcd60e51b815260206004820152600c60248201526b5a45524f5f4144445245535360a01b60448201526064016104e1565b610ed38282611631565b5050565b336001600160a01b0383161415610f425760405162461bcd60e51b815260206004820152602960248201527f455243313135353a2073657474696e6720617070726f76616c20737461747573604482015268103337b91039b2b63360b91b60648201526084016104e1565b3360008181526002602090815260408083206001600160a01b03871680855290835292819020805460ff191686151590811790915590519081529192917f17307eab39ab6107e8899845ad3d59bd9653f200f220920489ca2b5937696c31910160405180910390a35050565b6000546001600160a01b03163314610fd85760405162461bcd60e51b81526004016104e1906123ad565b6001600160a01b03166000908152600560205260409020805460ff19169055565b6000546001600160a01b031633146110235760405162461bcd60e51b81526004016104e1906123ad565b6000828152600960209081526040909120825161104292840190611ab5565b505050565b6000546001600160a01b031633146110715760405162461bcd60e51b81526004016104e1906123ad565b6000848152600660209081526040808320805460ff191660011790556007825280832086905560099091529020610942908383611b39565b6000546001600160a01b031633146110d35760405162461bcd60e51b81526004016104e1906123ad565b60009182526007602052604090912055565b6001600160a01b03851633148061110157506111018533610425565b61115f5760405162461bcd60e51b815260206004820152602960248201527f455243313135353a2063616c6c6572206973206e6f74206f776e6572206e6f7260448201526808185c1c1c9bdd995960ba1b60648201526084016104e1565b61094285858585856116cd565b6000546001600160a01b031633146111965760405162461bcd60e51b81526004016104e1906123ad565b6001600160a01b0381166111fb5760405162461bcd60e51b815260206004820152602660248201527f4f776e61626c653a206e6577206f776e657220697320746865207a65726f206160448201526564647265737360d01b60648201526084016104e1565b611204816115e1565b50565b60006001600160e01b0319821663152a902d60e11b148061051d575061051d826117e5565b6001600160a01b0384166112525760405162461bcd60e51b81526004016104e190612500565b81518351146112735760405162461bcd60e51b81526004016104e190612541565b3360005b8451811015611310578381815181106112925761129261240f565b6020026020010151600160008784815181106112b0576112b061240f565b602002602001015181526020019081526020016000206000886001600160a01b03166001600160a01b0316815260200190815260200160002060008282546112f89190612465565b90915550819050611308816124a4565b915050611277565b50846001600160a01b031660006001600160a01b0316826001600160a01b03167f4a39dc06d4c0dbc64b70af90fd698a233a518aa5d07e595d983b8c0526c8f7fb8787604051611361929190612589565b60405180910390a461094281600087878787611835565b81518351146113995760405162461bcd60e51b81526004016104e190612541565b6001600160a01b0384166113bf5760405162461bcd60e51b81526004016104e1906125b7565b3360005b84518110156114a95760008582815181106113e0576113e061240f565b6020026020010151905060008583815181106113fe576113fe61240f565b60209081029190910181015160008481526001835260408082206001600160a01b038e16835290935291909120549091508181101561144f5760405162461bcd60e51b81526004016104e1906125fc565b60008381526001602090815260408083206001600160a01b038e8116855292528083208585039055908b1682528120805484929061148e908490612465565b92505081905550505050806114a2906124a4565b90506113c3565b50846001600160a01b0316866001600160a01b0316826001600160a01b03167f4a39dc06d4c0dbc64b70af90fd698a233a518aa5d07e595d983b8c0526c8f7fb87876040516114f9929190612589565b60405180910390a4610e52818787878787611835565b6001600160a01b0384166115355760405162461bcd60e51b81526004016104e190612500565b3361154f81600087611546886119a0565b610942886119a0565b60008481526001602090815260408083206001600160a01b038916845290915281208054859290611581908490612465565b909155505060408051858152602081018590526001600160a01b0380881692600092918516917fc3d58168c5ae7397731d063d5bbf3d657854427343f4c083240f7aacaa2d0f62910160405180910390a4610942816000878787876119eb565b600080546001600160a01b038381166001600160a01b0319831681178455604051919092169283917f8be0079c531659141344cd1fd0a4f28419497f9722a3daafe3b4186f6b6457e09190a35050565b6127108111156116835760405162461bcd60e51b815260206004820152601a60248201527f45524332393831526f79616c746965733a20546f6f206869676800000000000060448201526064016104e1565b604080518082019091526001600160a01b0390921680835262ffffff909116602090920182905260048054600160a01b9093026001600160b81b0319909316909117919091179055565b6001600160a01b0384166116f35760405162461bcd60e51b81526004016104e1906125b7565b33611703818787611546886119a0565b60008481526001602090815260408083206001600160a01b038a168452909152902054838110156117465760405162461bcd60e51b81526004016104e1906125fc565b60008581526001602090815260408083206001600160a01b038b8116855292528083208785039055908816825281208054869290611785908490612465565b909155505060408051868152602081018690526001600160a01b03808916928a821692918616917fc3d58168c5ae7397731d063d5bbf3d657854427343f4c083240f7aacaa2d0f62910160405180910390a46108548288888888886119eb565b60006001600160e01b03198216636cdb3d1360e11b148061181657506001600160e01b031982166303a24d0760e21b145b8061051d57506301ffc9a760e01b6001600160e01b031983161461051d565b6001600160a01b0384163b15610e525760405163bc197c8160e01b81526001600160a01b0385169063bc197c81906118799089908990889088908890600401612646565b602060405180830381600087803b15801561189357600080fd5b505af19250505080156118c3575060408051601f3d908101601f191682019092526118c0918101906126a4565b60015b611970576118cf6126c1565b806308c379a0141561190957506118e46126dd565b806118ef575061190b565b8060405162461bcd60e51b81526004016104e19190611ca8565b505b60405162461bcd60e51b815260206004820152603460248201527f455243313135353a207472616e7366657220746f206e6f6e20455243313135356044820152732932b1b2b4bb32b91034b6b83632b6b2b73a32b960611b60648201526084016104e1565b6001600160e01b0319811663bc197c8160e01b146108545760405162461bcd60e51b81526004016104e190612766565b604080516001808252818301909252606091600091906020808301908036833701905050905082816000815181106119da576119da61240f565b602090810291909101015292915050565b6001600160a01b0384163b15610e525760405163f23a6e6160e01b81526001600160a01b0385169063f23a6e6190611a2f90899089908890889088906004016127ae565b602060405180830381600087803b158015611a4957600080fd5b505af1925050508015611a79575060408051601f3d908101601f19168201909252611a76918101906126a4565b60015b611a85576118cf6126c1565b6001600160e01b0319811663f23a6e6160e01b146108545760405162461bcd60e51b81526004016104e190612766565b828054611ac190612372565b90600052602060002090601f016020900481019282611ae35760008555611b29565b82601f10611afc57805160ff1916838001178555611b29565b82800160010185558215611b29579182015b82811115611b29578251825591602001919060010190611b0e565b50611b35929150611bad565b5090565b828054611b4590612372565b90600052602060002090601f016020900481019282611b675760008555611b29565b82601f10611b805782800160ff19823516178555611b29565b82800160010185558215611b29579182015b82811115611b29578235825591602001919060010190611b92565b5b80821115611b355760008155600101611bae565b80356001600160a01b0381168114611bd957600080fd5b919050565b60008060408385031215611bf157600080fd5b611bfa83611bc2565b946020939093013593505050565b6001600160e01b03198116811461120457600080fd5b600060208284031215611c3057600080fd5b8135611c3b81611c08565b9392505050565b600060208284031215611c5457600080fd5b5035919050565b6000815180845260005b81811015611c8157602081850181015186830182015201611c65565b81811115611c93576000602083870101525b50601f01601f19169290920160200192915050565b602081526000611c3b6020830184611c5b565b60008083601f840112611ccd57600080fd5b5081356001600160401b03811115611ce457600080fd5b6020830191508360208260051b8501011115611cff57600080fd5b9250929050565b60008083601f840112611d1857600080fd5b5081356001600160401b03811115611d2f57600080fd5b602083019150836020828501011115611cff57600080fd5b60008060008060008060006080888a031215611d6257600080fd5b611d6b88611bc2565b965060208801356001600160401b0380821115611d8757600080fd5b611d938b838c01611cbb565b909850965060408a0135915080821115611dac57600080fd5b611db88b838c01611cbb565b909650945060608a0135915080821115611dd157600080fd5b50611dde8a828b01611d06565b989b979a50959850939692959293505050565b60008060408385031215611e0457600080fd5b50508035926020909101359150565b634e487b7160e01b600052604160045260246000fd5b601f8201601f191681016001600160401b0381118282101715611e4e57611e4e611e13565b6040525050565b60006001600160401b03821115611e6e57611e6e611e13565b5060051b60200190565b600082601f830112611e8957600080fd5b81356020611e9682611e55565b604051611ea38282611e29565b83815260059390931b8501820192828101915086841115611ec357600080fd5b8286015b84811015611ede5780358352918301918301611ec7565b509695505050505050565b60006001600160401b03831115611f0257611f02611e13565b604051611f19601f8501601f191660200182611e29565b809150838152848484011115611f2e57600080fd5b83836020830137600060208583010152509392505050565b600082601f830112611f5757600080fd5b611c3b83833560208501611ee9565b600080600080600060a08688031215611f7e57600080fd5b611f8786611bc2565b9450611f9560208701611bc2565b935060408601356001600160401b0380821115611fb157600080fd5b611fbd89838a01611e78565b94506060880135915080821115611fd357600080fd5b611fdf89838a01611e78565b93506080880135915080821115611ff557600080fd5b5061200288828901611f46565b9150509295509295909350565b60008060008060008060006080888a03121561202a57600080fd5b87356001600160401b038082111561204157600080fd5b61204d8b838c01611cbb565b909950975060208a0135965060408a0135915080821115611dac57600080fd5b60006020828403121561207f57600080fd5b611c3b82611bc2565b6000806040838503121561209b57600080fd5b82356001600160401b03808211156120b257600080fd5b818501915085601f8301126120c657600080fd5b813560206120d382611e55565b6040516120e08282611e29565b83815260059390931b850182019282810191508984111561210057600080fd5b948201945b838610156121255761211686611bc2565b82529482019490820190612105565b9650508601359250508082111561213b57600080fd5b506108a885828601611e78565b600081518084526020808501945080840160005b838110156121785781518752958201959082019060010161215c565b509495945050505050565b602081526000611c3b6020830184612148565b6000806000806000608086880312156121ae57600080fd5b6121b786611bc2565b9450602086013593506040860135925060608601356001600160401b038111156121e057600080fd5b6121ec88828901611d06565b969995985093965092949392505050565b6000806040838503121561221057600080fd5b61221983611bc2565b91506020830135801515811461222e57600080fd5b809150509250929050565b6000806040838503121561224c57600080fd5b8235915060208301356001600160401b0381111561226957600080fd5b8301601f8101851361227a57600080fd5b6108a885823560208401611ee9565b6000806000806060858703121561229f57600080fd5b843593506020850135925060408501356001600160401b038111156122c357600080fd5b6122cf87828801611d06565b95989497509550505050565b600080604083850312156122ee57600080fd5b6122f783611bc2565b915061230560208401611bc2565b90509250929050565b600080600080600060a0868803121561232657600080fd5b61232f86611bc2565b945061233d60208701611bc2565b9350604086013592506060860135915060808601356001600160401b0381111561236657600080fd5b61200288828901611f46565b600181811c9082168061238657607f821691505b602082108114156123a757634e487b7160e01b600052602260045260246000fd5b50919050565b6020808252818101527f4f776e61626c653a2063616c6c6572206973206e6f7420746865206f776e6572604082015260600190565b6020808252601390820152722aa720aaaa2427a924ad22a22fa6a4a72a22a960691b604082015260600190565b634e487b7160e01b600052603260045260246000fd5b60208082526010908201526f544f4b454e5f4e4f545f41435449564560801b604082015260600190565b634e487b7160e01b600052601160045260246000fd5b600082198211156124785761247861244f565b500190565b6020808252600d908201526c4f55545f4f465f535550504c5960981b604082015260600190565b60006000198214156124b8576124b861244f565b5060010190565b60008160001904831182151516156124d9576124d961244f565b500290565b6000826124fb57634e487b7160e01b600052601260045260246000fd5b500490565b60208082526021908201527f455243313135353a206d696e7420746f20746865207a65726f206164647265736040820152607360f81b606082015260800190565b60208082526028908201527f455243313135353a2069647320616e6420616d6f756e7473206c656e677468206040820152670dad2e6dac2e8c6d60c31b606082015260800190565b60408152600061259c6040830185612148565b82810360208401526125ae8185612148565b95945050505050565b60208082526025908201527f455243313135353a207472616e7366657220746f20746865207a65726f206164604082015264647265737360d81b606082015260800190565b6020808252602a908201527f455243313135353a20696e73756666696369656e742062616c616e636520666f60408201526939103a3930b739b332b960b11b606082015260800190565b6001600160a01b0386811682528516602082015260a06040820181905260009061267290830186612148565b82810360608401526126848186612148565b905082810360808401526126988185611c5b565b98975050505050505050565b6000602082840312156126b657600080fd5b8151611c3b81611c08565b600060033d11156126da5760046000803e5060005160e01c5b90565b600060443d10156126eb5790565b6040516003193d81016004833e81513d6001600160401b03816024840111818411171561271a57505050505090565b82850191508151818111156127325750505050505090565b843d870101602082850101111561274c5750505050505090565b61275b60208286010187611e29565b509095945050505050565b60208082526028908201527f455243313135353a204552433131353552656365697665722072656a656374656040820152676420746f6b656e7360c01b606082015260800190565b6001600160a01b03868116825285166020820152604081018490526060810183905260a0608082018190526000906127e890830184611c5b565b97965050505050505056fea2646970667358221220565f3aa926affc6bae44ca688f27999df2d3cb7161f294a88847ff63f7a7784164736f6c63430008080033",
  "linkReferences": {},
  "deployedLinkReferences": {}
}