{
  "_format": "hh-sol-artifact-1",
  "contractName": "AlunaverseMinter",
  "sourceName": "contracts/AlunaverseMinter.sol",
  "abi": [
    {
      "inputs": [
        {
          "internalType": "address",
          "name": "alunaverseAddress",
          "type": "address"
        }
      ],
      "stateMutability": "nonpayable",
      "type": "constructor"
    },
    {
      "anonymous": false,
      "inputs": [
        {
          "indexed": true,
          "internalType": "address",
          "name": "previousOwner",
          "type": "address"
        },
        {
          "indexed": true,
          "internalType": "address",
          "name": "newOwner",
          "type": "address"
        }
      ],
      "name": "OwnershipTransferred",
      "type": "event"
    },
    {
      "inputs": [],
      "name": "Alunaverse",
      "outputs": [
        {
          "internalType": "contract IAlunaverse",
          "name": "",
          "type": "address"
        }
      ],
      "stateMutability": "view",
      "type": "function"
    },
    {
      "inputs": [],
      "name": "owner",
      "outputs": [
        {
          "internalType": "address",
          "name": "",
          "type": "address"
        }
      ],
      "stateMutability": "view",
      "type": "function"
    },
    {
      "inputs": [
        {
          "internalType": "uint256",
          "name": "tokenId",
          "type": "uint256"
        },
        {
          "internalType": "uint256",
          "name": "numberOfTokens",
          "type": "uint256"
        }
      ],
      "name": "publicMint",
      "outputs": [],
      "stateMutability": "payable",
      "type": "function"
    },
    {
      "inputs": [],
      "name": "renounceOwnership",
      "outputs": [],
      "stateMutability": "nonpayable",
      "type": "function"
    },
    {
      "inputs": [
        {
          "internalType": "uint256",
          "name": "tokenId",
          "type": "uint256"
        }
      ],
      "name": "toggleTokenPublicSale",
      "outputs": [],
      "stateMutability": "nonpayable",
      "type": "function"
    },
    {
      "inputs": [
        {
          "internalType": "uint256",
          "name": "",
          "type": "uint256"
        }
      ],
      "name": "tokenMintPrice",
      "outputs": [
        {
          "internalType": "uint256",
          "name": "",
          "type": "uint256"
        }
      ],
      "stateMutability": "view",
      "type": "function"
    },
    {
      "inputs": [
        {
          "internalType": "uint256",
          "name": "",
          "type": "uint256"
        }
      ],
      "name": "tokenPublicSaleEnabled",
      "outputs": [
        {
          "internalType": "bool",
          "name": "",
          "type": "bool"
        }
      ],
      "stateMutability": "view",
      "type": "function"
    },
    {
      "inputs": [
        {
          "internalType": "address",
          "name": "newOwner",
          "type": "address"
        }
      ],
      "name": "transferOwnership",
      "outputs": [],
      "stateMutability": "nonpayable",
      "type": "function"
    },
    {
      "inputs": [
        {
          "internalType": "uint256",
          "name": "tokenId",
          "type": "uint256"
        },
        {
          "internalType": "uint256",
          "name": "mintPrice",
          "type": "uint256"
        }
      ],
      "name": "updateTokenMintPrice",
      "outputs": [],
      "stateMutability": "nonpayable",
      "type": "function"
    },
    {
      "inputs": [
        {
          "internalType": "address",
          "name": "newWhitelistSigner",
          "type": "address"
        }
      ],
      "name": "updateWhitelistSigner",
      "outputs": [],
      "stateMutability": "nonpayable",
      "type": "function"
    },
    {
      "inputs": [
        {
          "internalType": "address payable",
          "name": "newAddress",
          "type": "address"
        }
      ],
      "name": "updateWithdrawalAddress",
      "outputs": [],
      "stateMutability": "nonpayable",
      "type": "function"
    },
    {
      "inputs": [
        {
          "internalType": "bytes",
          "name": "signature",
          "type": "bytes"
        },
        {
          "internalType": "uint256",
          "name": "tokenId",
          "type": "uint256"
        },
        {
          "internalType": "uint256",
          "name": "numberOfTokens",
          "type": "uint256"
        },
        {
          "internalType": "uint256",
          "name": "approvedLimit",
          "type": "uint256"
        }
      ],
      "name": "whitelistMint",
      "outputs": [],
      "stateMutability": "payable",
      "type": "function"
    },
    {
      "inputs": [
        {
          "internalType": "address",
          "name": "",
          "type": "address"
        },
        {
          "internalType": "uint256",
          "name": "",
          "type": "uint256"
        }
      ],
      "name": "whitelistMinted",
      "outputs": [
        {
          "internalType": "uint256",
          "name": "",
          "type": "uint256"
        }
      ],
      "stateMutability": "view",
      "type": "function"
    },
    {
      "inputs": [],
      "name": "whitelistSigner",
      "outputs": [
        {
          "internalType": "address",
          "name": "",
          "type": "address"
        }
      ],
      "stateMutability": "view",
      "type": "function"
    },
    {
      "inputs": [],
      "name": "withdraw",
      "outputs": [],
      "stateMutability": "nonpayable",
      "type": "function"
    },
    {
      "inputs": [],
      "name": "withdrawalAddress",
      "outputs": [
        {
          "internalType": "address payable",
          "name": "",
          "type": "address"
        }
      ],
      "stateMutability": "view",
      "type": "function"
    }
  ],
  "bytecode": "0x60806040527f0b27fc0b3a3648ca86351e3382d6219263ddbf1c15b1634b1cb1dc892148f35460085534801561003457600080fd5b50604051611233380380611233833981016040819052610053916101bb565b61005c3361016b565b600180546001600160a01b0383166001600160a01b03199182161782556006805490911633179055604080518082018252601081526f20b63ab730bb32b939b2a6b4b73a32b960811b60209182015281518083018352928352603160f81b9281019290925280517f8b73c3c69bb8fe3d512ecc4cf759cc79239f7b179b0ffacaa9a75d522b39400f928101929092527ff348cf0ef5ffe3f933ab92c6d7e8fac595576a13cdfd2cff46fd3c74e726599f908201527fc89efdaa54c0f20c7adf612882df0950f5a951637e0307cdcb4c672f298b8bc6606082015246608082018190523060a08301529060c0016040516020818303038152906040528051906020012060078190555050506101eb565b600080546001600160a01b038381166001600160a01b0319831681178455604051919092169283917f8be0079c531659141344cd1fd0a4f28419497f9722a3daafe3b4186f6b6457e09190a35050565b6000602082840312156101cd57600080fd5b81516001600160a01b03811681146101e457600080fd5b9392505050565b611039806101fa6000396000f3fe6080604052600436106100f35760003560e01c806398ae99a81161008a578063e6320b2911610059578063e6320b2914610298578063ef81b4d4146102d8578063f2bcd022146102f8578063f2fde38b1461031857600080fd5b806398ae99a8146101f2578063d120ef9114610205578063e0625ead14610225578063e19c74db1461026057600080fd5b80635e72fc5d116100c65780635e72fc5d1461016257806360353b5e14610182578063715018a6146101bf5780638da5cb5b146101d457600080fd5b8063098d2bb3146100f8578063196a07241461011a5780633ccfd60b1461013a57806354edf9ab1461014f575b600080fd5b34801561010457600080fd5b50610118610113366004610e05565b610338565b005b34801561012657600080fd5b50610118610135366004610e29565b61038d565b34801561014657600080fd5b506101186103d7565b61011861015d366004610e58565b6104e4565b34801561016e57600080fd5b5061011861017d366004610e05565b6107b1565b34801561018e57600080fd5b506001546101a2906001600160a01b031681565b6040516001600160a01b0390911681526020015b60405180910390f35b3480156101cb57600080fd5b506101186107fd565b3480156101e057600080fd5b506000546001600160a01b03166101a2565b610118610200366004610f1d565b610833565b34801561021157600080fd5b50610118610220366004610f1d565b610961565b34801561023157600080fd5b50610252610240366004610e29565b60026020526000908152604090205481565b6040519081526020016101b6565b34801561026c57600080fd5b5061025261027b366004610f3f565b600460209081526000928352604080842090915290825290205481565b3480156102a457600080fd5b506102c86102b3366004610e29565b60036020526000908152604090205460ff1681565b60405190151581526020016101b6565b3480156102e457600080fd5b506005546101a2906001600160a01b031681565b34801561030457600080fd5b506006546101a2906001600160a01b031681565b34801561032457600080fd5b50610118610333366004610e05565b61099d565b6000546001600160a01b0316331461036b5760405162461bcd60e51b815260040161036290610f6b565b60405180910390fd5b600580546001600160a01b0319166001600160a01b0392909216919091179055565b6000546001600160a01b031633146103b75760405162461bcd60e51b815260040161036290610f6b565b6000908152600360205260409020805460ff19811660ff90911615179055565b6000546001600160a01b031633146104015760405162461bcd60e51b815260040161036290610f6b565b6000471161044a5760405162461bcd60e51b81526020600482015260166024820152754e6f2062616c616e636520746f20776974686472617760501b6044820152606401610362565b6006546040516000916001600160a01b03169047908381818185875af1925050503d8060008114610497576040519150601f19603f3d011682016040523d82523d6000602084013e61049c565b606091505b50509050806104e15760405162461bcd60e51b815260206004820152601160248201527015da5d1a191c985dd85b0819985a5b1959607a1b6044820152606401610362565b50565b6005546001600160a01b03166105325760405162461bcd60e51b81526020600482015260136024820152722727afaba424aa22a624a9aa2fa9a4a3a722a960691b6044820152606401610362565b60008381526002602052604090205461054c908390610fb6565b341461058e5760405162461bcd60e51b8152602060048201526011602482015270125390d3d4949150d517d4105653515395607a1b6044820152606401610362565b33600090815260046020908152604080832086845290915290205481906105b6908490610fd5565b11156105fc5760405162461bcd60e51b815260206004820152601560248201527415d05313115517d31253525517d15610d151511151605a1b6044820152606401610362565b336000908152600460209081526040808320868452909152902054610622908390610fd5565b336000818152600460209081526040808320888452825280832094909455600754600854855192830152938101929092526060820186905260808201849052919060a001604051602081830303815290604052805190602001206040516020016106a392919061190160f01b81526002810192909252602282015260420190565b60408051601f198184030181529190528051602090910120905060006106c98287610a35565b90506001600160a01b038116158015906106f057506005546001600160a01b038281169116145b6107305760405162461bcd60e51b8152602060048201526011602482015270494e56414c49445f5349474e415455524560781b6044820152606401610362565b60015460405163731133e960e01b8152336004820152602481018790526044810186905260806064820152600060848201526001600160a01b039091169063731133e99060a401600060405180830381600087803b15801561079157600080fd5b505af11580156107a5573d6000803e3d6000fd5b50505050505050505050565b6000546001600160a01b031633146107db5760405162461bcd60e51b815260040161036290610f6b565b600680546001600160a01b0319166001600160a01b0392909216919091179055565b6000546001600160a01b031633146108275760405162461bcd60e51b815260040161036290610f6b565b6108316000610a59565b565b60008281526003602052604090205460ff166108885760405162461bcd60e51b8152602060048201526014602482015273141550931250d7d4d0531157d11254d05093115160621b6044820152606401610362565b6000828152600260205260409020546108a2908290610fb6565b34146108e45760405162461bcd60e51b8152602060048201526011602482015270125390d3d4949150d517d4105653515395607a1b6044820152606401610362565b60015460405163731133e960e01b8152336004820152602481018490526044810183905260806064820152600060848201526001600160a01b039091169063731133e99060a401600060405180830381600087803b15801561094557600080fd5b505af1158015610959573d6000803e3d6000fd5b505050505050565b6000546001600160a01b0316331461098b5760405162461bcd60e51b815260040161036290610f6b565b60009182526002602052604090912055565b6000546001600160a01b031633146109c75760405162461bcd60e51b815260040161036290610f6b565b6001600160a01b038116610a2c5760405162461bcd60e51b815260206004820152602660248201527f4f776e61626c653a206e6577206f776e657220697320746865207a65726f206160448201526564647265737360d01b6064820152608401610362565b6104e181610a59565b6000806000610a448585610aa9565b91509150610a5181610b19565b509392505050565b600080546001600160a01b038381166001600160a01b0319831681178455604051919092169283917f8be0079c531659141344cd1fd0a4f28419497f9722a3daafe3b4186f6b6457e09190a35050565b600080825160411415610ae05760208301516040840151606085015160001a610ad487828585610cd4565b94509450505050610b12565b825160401415610b0a5760208301516040840151610aff868383610dc1565b935093505050610b12565b506000905060025b9250929050565b6000816004811115610b2d57610b2d610fed565b1415610b365750565b6001816004811115610b4a57610b4a610fed565b1415610b985760405162461bcd60e51b815260206004820152601860248201527f45434453413a20696e76616c6964207369676e617475726500000000000000006044820152606401610362565b6002816004811115610bac57610bac610fed565b1415610bfa5760405162461bcd60e51b815260206004820152601f60248201527f45434453413a20696e76616c6964207369676e6174757265206c656e677468006044820152606401610362565b6003816004811115610c0e57610c0e610fed565b1415610c675760405162461bcd60e51b815260206004820152602260248201527f45434453413a20696e76616c6964207369676e6174757265202773272076616c604482015261756560f01b6064820152608401610362565b6004816004811115610c7b57610c7b610fed565b14156104e15760405162461bcd60e51b815260206004820152602260248201527f45434453413a20696e76616c6964207369676e6174757265202776272076616c604482015261756560f01b6064820152608401610362565b6000807f7fffffffffffffffffffffffffffffff5d576e7357a4501ddfe92f46681b20a0831115610d0b5750600090506003610db8565b8460ff16601b14158015610d2357508460ff16601c14155b15610d345750600090506004610db8565b6040805160008082526020820180845289905260ff881692820192909252606081018690526080810185905260019060a0016020604051602081039080840390855afa158015610d88573d6000803e3d6000fd5b5050604051601f1901519150506001600160a01b038116610db157600060019250925050610db8565b9150600090505b94509492505050565b6000806001600160ff1b03831660ff84901c601b01610de287828885610cd4565b935093505050935093915050565b6001600160a01b03811681146104e157600080fd5b600060208284031215610e1757600080fd5b8135610e2281610df0565b9392505050565b600060208284031215610e3b57600080fd5b5035919050565b634e487b7160e01b600052604160045260246000fd5b60008060008060808587031215610e6e57600080fd5b843567ffffffffffffffff80821115610e8657600080fd5b818701915087601f830112610e9a57600080fd5b813581811115610eac57610eac610e42565b604051601f8201601f19908116603f01168101908382118183101715610ed457610ed4610e42565b816040528281528a6020848701011115610eed57600080fd5b82602086016020830137600060209382018401529a91890135995050604088013597606001359650945050505050565b60008060408385031215610f3057600080fd5b50508035926020909101359150565b60008060408385031215610f5257600080fd5b8235610f5d81610df0565b946020939093013593505050565b6020808252818101527f4f776e61626c653a2063616c6c6572206973206e6f7420746865206f776e6572604082015260600190565b634e487b7160e01b600052601160045260246000fd5b6000816000190483118215151615610fd057610fd0610fa0565b500290565b60008219821115610fe857610fe8610fa0565b500190565b634e487b7160e01b600052602160045260246000fdfea26469706673582212202b3eff499018830282da65b75478c89e5d17c8fb654076e8f917d6ff29fa2f4464736f6c63430008080033",
  "linkReferences": {},
  "deployedLinkReferences": {}
}